{
  "contractName": "MainICO",
  "abi": [
    {
      "constant": true,
      "inputs": [],
      "name": "name",
      "outputs": [
        {
          "name": "",
          "type": "bytes32"
        }
      ],
      "payable": false,
      "stateMutability": "view",
      "type": "function"
    },
    {
      "constant": true,
      "inputs": [],
      "name": "startTime",
      "outputs": [
        {
          "name": "",
          "type": "uint256"
        }
      ],
      "payable": false,
      "stateMutability": "view",
      "type": "function"
    },
    {
      "constant": true,
      "inputs": [],
      "name": "buyPrice",
      "outputs": [
        {
          "name": "",
          "type": "uint256"
        }
      ],
      "payable": false,
      "stateMutability": "view",
      "type": "function"
    },
    {
      "constant": true,
      "inputs": [],
      "name": "owner",
      "outputs": [
        {
          "name": "",
          "type": "address"
        }
      ],
      "payable": false,
      "stateMutability": "view",
      "type": "function"
    },
    {
      "constant": true,
      "inputs": [
        {
          "name": "x",
          "type": "bytes32"
        }
      ],
      "name": "bytes32ToString",
      "outputs": [
        {
          "name": "",
          "type": "string"
        }
      ],
      "payable": false,
      "stateMutability": "view",
      "type": "function"
    },
    {
      "constant": false,
      "inputs": [
        {
          "name": "value",
          "type": "string"
        }
      ],
      "name": "isName",
      "outputs": [
        {
          "name": "",
          "type": "bool"
        }
      ],
      "payable": false,
      "stateMutability": "nonpayable",
      "type": "function"
    },
    {
      "constant": false,
      "inputs": [],
      "name": "buy",
      "outputs": [
        {
          "name": "",
          "type": "uint256"
        }
      ],
      "payable": true,
      "stateMutability": "payable",
      "type": "function"
    },
    {
      "constant": true,
      "inputs": [],
      "name": "_contract",
      "outputs": [
        {
          "name": "",
          "type": "address"
        }
      ],
      "payable": false,
      "stateMutability": "view",
      "type": "function"
    },
    {
      "constant": true,
      "inputs": [],
      "name": "token",
      "outputs": [
        {
          "name": "",
          "type": "address"
        }
      ],
      "payable": false,
      "stateMutability": "view",
      "type": "function"
    },
    {
      "inputs": [
        {
          "name": "_token",
          "type": "address"
        }
      ],
      "payable": false,
      "stateMutability": "nonpayable",
      "type": "constructor"
    },
    {
      "payable": true,
      "stateMutability": "payable",
      "type": "fallback"
    },
    {
      "anonymous": false,
      "inputs": [
        {
          "indexed": false,
          "name": "_message",
          "type": "string"
        }
      ],
      "name": "Log",
      "type": "event"
    },
    {
      "constant": false,
      "inputs": [],
      "name": "remove",
      "outputs": [],
      "payable": false,
      "stateMutability": "nonpayable",
      "type": "function"
    }
  ],
  "bytecode": "0x6060604052341561000f57600080fd5b60405160208061455f8339810160405280805190602001909190505080600160006101000a81548173ffffffffffffffffffffffffffffffffffffffff021916908373ffffffffffffffffffffffffffffffffffffffff16021790555042600381905550600160009054906101000a900473ffffffffffffffffffffffffffffffffffffffff1661009e610171565b808273ffffffffffffffffffffffffffffffffffffffff1673ffffffffffffffffffffffffffffffffffffffff168152602001915050604051809103906000f08015156100ea57600080fd5b600260006101000a81548173ffffffffffffffffffffffffffffffffffffffff021916908373ffffffffffffffffffffffffffffffffffffffff16021790555033600460006101000a81548173ffffffffffffffffffffffffffffffffffffffff021916908373ffffffffffffffffffffffffffffffffffffffff16021790555050610181565b604051610f358061362a83390190565b61349a806101906000396000f3006060604052600436106100a4576000357c0100000000000000000000000000000000000000000000000000000000900463ffffffff16806306fdde031461011957806378e979251461014a5780638620410b146101735780638da5cb5b1461019c5780639201de55146101f1578063a02ec0e814610291578063a6f2ae3a14610306578063a7f4377914610324578063df9117b814610339578063fc0c546a1461038e575b7fcf34ef537ac33ee1ac626ca1587a0a7e8e51561e5514f8cb36afa1c5102b3bab60405180806020018281038252600b8152602001807f64656661756c74206c6f6700000000000000000000000000000000000000000081525060200191505060405180910390a161011633346103e3565b50005b341561012457600080fd5b61012c61054f565b60405180826000191660001916815260200191505060405180910390f35b341561015557600080fd5b61015d610577565b6040518082815260200191505060405180910390f35b341561017e57600080fd5b61018661057d565b6040518082815260200191505060405180910390f35b34156101a757600080fd5b6101af610583565b604051808273ffffffffffffffffffffffffffffffffffffffff1673ffffffffffffffffffffffffffffffffffffffff16815260200191505060405180910390f35b34156101fc57600080fd5b6102166004808035600019169060200190919050506105a9565b6040518080602001828103825283818151815260200191508051906020019080838360005b8381101561025657808201518184015260208101905061023b565b50505050905090810190601f1680156102835780820380516001836020036101000a031916815260200191505b509250505060405180910390f35b341561029c57600080fd5b6102ec600480803590602001908201803590602001908080601f01602080910402602001604051908101604052809392919081815260200183838082843782019150505050505091905050610796565b604051808215151515815260200191505060405180910390f35b61030e6108af565b6040518082815260200191505060405180910390f35b341561032f57600080fd5b61033761092d565b005b341561034457600080fd5b61034c6109c0565b604051808273ffffffffffffffffffffffffffffffffffffffff1673ffffffffffffffffffffffffffffffffffffffff16815260200191505060405180910390f35b341561039957600080fd5b6103a16109e6565b604051808273ffffffffffffffffffffffffffffffffffffffff1673ffffffffffffffffffffffffffffffffffffffff16815260200191505060405180910390f35b6000807fcf34ef537ac33ee1ac626ca1587a0a7e8e51561e5514f8cb36afa1c5102b3bab6040518080602001828103825260048152602001807f5f6275790000000000000000000000000000000000000000000000000000000081525060200191505060405180910390a1610456610a0c565b8381151561046057fe5b0490507fcf34ef537ac33ee1ac626ca1587a0a7e8e51561e5514f8cb36afa1c5102b3bab6104cb6040805190810160405280600d81526020017f5f62757920746f6b656e733a20000000000000000000000000000000000000008152506104c684610fe5565b611137565b6040518080602001828103825283818151815260200191508051906020019080838360005b8381101561050b5780820151818401526020810190506104f0565b50505050905090810190601f1680156105385780820380516001836020036101000a031916815260200191505b509250505060405180910390a18091505092915050565b60007f4261736549434f00000000000000000000000000000000000000000000000000905090565b60035481565b60005481565b600460009054906101000a900473ffffffffffffffffffffffffffffffffffffffff1681565b6105b16115bc565b6105b96115d0565b60008060006105c66115d0565b60206040518059106105d55750595b9080825280601f01601f1916602001820160405250945060009350600092505b60208310156106b3578260080260020a876001900402600102915060007f010000000000000000000000000000000000000000000000000000000000000002827effffffffffffffffffffffffffffffffffffffffffffffffffffffffffffff19161415156106a65781858581518110151561066d57fe5b9060200101907effffffffffffffffffffffffffffffffffffffffffffffffffffffffffffff1916908160001a90535083806001019450505b82806001019350506105f5565b836040518059106106c15750595b9080825280601f01601f19166020018201604052509050600092505b838310156107895784838151811015156106f357fe5b9060200101517f010000000000000000000000000000000000000000000000000000000000000090047f010000000000000000000000000000000000000000000000000000000000000002818481518110151561074c57fe5b9060200101907effffffffffffffffffffffffffffffffffffffffffffffffffffffffffffff1916908160001a90535082806001019350506106dd565b8095505050505050919050565b6000816040518082805190602001908083835b6020831015156107ce57805182526020820191506020810190506020830392506107a9565b6001836020036101000a0380198251168184511680821785525050505050509050019150506040518091039020600019163073ffffffffffffffffffffffffffffffffffffffff166306fdde036000604051602001526040518163ffffffff167c0100000000000000000000000000000000000000000000000000000000028152600401602060405180830381600087803b151561086b57600080fd5b6102c65a03f1151561087c57600080fd5b50505060405180519050604051808260001916600019168152602001915050604051809103902060001916149050919050565b6000807fcf34ef537ac33ee1ac626ca1587a0a7e8e51561e5514f8cb36afa1c5102b3bab6040518080602001828103825260038152602001807f627579000000000000000000000000000000000000000000000000000000000081525060200191505060405180910390a161092433346103e3565b90508091505090565b600460009054906101000a900473ffffffffffffffffffffffffffffffffffffffff1673ffffffffffffffffffffffffffffffffffffffff163373ffffffffffffffffffffffffffffffffffffffff1614156109be57600460009054906101000a900473ffffffffffffffffffffffffffffffffffffffff1673ffffffffffffffffffffffffffffffffffffffff16ff5b565b600260009054906101000a900473ffffffffffffffffffffffffffffffffffffffff1681565b600160009054906101000a900473ffffffffffffffffffffffffffffffffffffffff1681565b60007fcf34ef537ac33ee1ac626ca1587a0a7e8e51561e5514f8cb36afa1c5102b3bab6040518080602001828103825260158152602001807f5b4d61696e2049434f5d205f6275795f7072696365000000000000000000000081525060200191505060405180910390a160f060035401421115610cd657600260009054906101000a900473ffffffffffffffffffffffffffffffffffffffff1673ffffffffffffffffffffffffffffffffffffffff1663a02ec0e86000604051602001526040518163ffffffff167c01000000000000000000000000000000000000000000000000000000000281526004018080602001828103825260098152602001807f53746167653349434f0000000000000000000000000000000000000000000000815250602001915050602060405180830381600087803b1515610b4d57600080fd5b6102c65a03f11515610b5e57600080fd5b505050604051805190501515610c2657600160009054906101000a900473ffffffffffffffffffffffffffffffffffffffff16610b996115e4565b808273ffffffffffffffffffffffffffffffffffffffff1673ffffffffffffffffffffffffffffffffffffffff168152602001915050604051809103906000f0801515610be557600080fd5b600260006101000a81548173ffffffffffffffffffffffffffffffffffffffff021916908373ffffffffffffffffffffffffffffffffffffffff1602179055505b600260009054906101000a900473ffffffffffffffffffffffffffffffffffffffff1673ffffffffffffffffffffffffffffffffffffffff16638620410b6000604051602001526040518163ffffffff167c0100000000000000000000000000000000000000000000000000000000028152600401602060405180830381600087803b1515610cb457600080fd5b6102c65a03f11515610cc557600080fd5b505050604051805190509050610fe2565b607860035401421115610f3657600260009054906101000a900473ffffffffffffffffffffffffffffffffffffffff1673ffffffffffffffffffffffffffffffffffffffff1663a02ec0e86000604051602001526040518163ffffffff167c01000000000000000000000000000000000000000000000000000000000281526004018080602001828103825260098152602001807f53746167653249434f0000000000000000000000000000000000000000000000815250602001915050602060405180830381600087803b1515610dad57600080fd5b6102c65a03f11515610dbe57600080fd5b505050604051805190501515610e8657600160009054906101000a900473ffffffffffffffffffffffffffffffffffffffff16610df96115f4565b808273ffffffffffffffffffffffffffffffffffffffff1673ffffffffffffffffffffffffffffffffffffffff168152602001915050604051809103906000f0801515610e4557600080fd5b600260006101000a81548173ffffffffffffffffffffffffffffffffffffffff021916908373ffffffffffffffffffffffffffffffffffffffff1602179055505b600260009054906101000a900473ffffffffffffffffffffffffffffffffffffffff1673ffffffffffffffffffffffffffffffffffffffff16638620410b6000604051602001526040518163ffffffff167c0100000000000000000000000000000000000000000000000000000000028152600401602060405180830381600087803b1515610f1457600080fd5b6102c65a03f11515610f2557600080fd5b505050604051805190509050610fe2565b600260009054906101000a900473ffffffffffffffffffffffffffffffffffffffff1673ffffffffffffffffffffffffffffffffffffffff16638620410b6000604051602001526040518163ffffffff167c0100000000000000000000000000000000000000000000000000000000028152600401602060405180830381600087803b1515610fc457600080fd5b6102c65a03f11515610fd557600080fd5b5050506040518051905090505b90565b610fed6115bc565b600080610ff86115d0565b60008086141561103f576040805190810160405280600181526020017f3000000000000000000000000000000000000000000000000000000000000000815250945061112e565b8593505b600084141515611069578280600101935050600a8481151561106157fe5b049350611043565b826040518059106110775750595b9080825280601f01601f191660200182016040525091506001830390505b60008614151561112a57600a868115156110ab57fe5b066030017f0100000000000000000000000000000000000000000000000000000000000000028282806001900393508151811015156110e657fe5b9060200101907effffffffffffffffffffffffffffffffffffffffffffffffffffffffffffff1916908160001a905350600a8681151561112257fe5b049550611095565b8194505b50505050919050565b61113f6115bc565b61117c8383602060405190810160405280600081525060206040519081016040528060008152506020604051908101604052806000815250611184565b905092915050565b61118c6115bc565b6111946115d0565b61119c6115d0565b6111a46115d0565b6111ac6115d0565b6111b46115d0565b6111bc6115bc565b6111c46115d0565b6000808e98508d97508c96508b95508a94508451865188518a518c51010101016040518059106111f15750595b9080825280601f01601f1916602001820160405250935083925060009150600090505b88518110156112c757888181518110151561122b57fe5b9060200101517f010000000000000000000000000000000000000000000000000000000000000090047f010000000000000000000000000000000000000000000000000000000000000002838380600101945081518110151561128a57fe5b9060200101907effffffffffffffffffffffffffffffffffffffffffffffffffffffffffffff1916908160001a9053508080600101915050611214565b600090505b875181101561137f5787818151811015156112e357fe5b9060200101517f010000000000000000000000000000000000000000000000000000000000000090047f010000000000000000000000000000000000000000000000000000000000000002838380600101945081518110151561134257fe5b9060200101907effffffffffffffffffffffffffffffffffffffffffffffffffffffffffffff1916908160001a90535080806001019150506112cc565b600090505b865181101561143757868181518110151561139b57fe5b9060200101517f010000000000000000000000000000000000000000000000000000000000000090047f01000000000000000000000000000000000000000000000000000000000000000283838060010194508151811015156113fa57fe5b9060200101907effffffffffffffffffffffffffffffffffffffffffffffffffffffffffffff1916908160001a9053508080600101915050611384565b600090505b85518110156114ef57858181518110151561145357fe5b9060200101517f010000000000000000000000000000000000000000000000000000000000000090047f01000000000000000000000000000000000000000000000000000000000000000283838060010194508151811015156114b257fe5b9060200101907effffffffffffffffffffffffffffffffffffffffffffffffffffffffffffff1916908160001a905350808060010191505061143c565b600090505b84518110156115a757848181518110151561150b57fe5b9060200101517f010000000000000000000000000000000000000000000000000000000000000090047f010000000000000000000000000000000000000000000000000000000000000002838380600101945081518110151561156a57fe5b9060200101907effffffffffffffffffffffffffffffffffffffffffffffffffffffffffffff1916908160001a90535080806001019150506114f4565b82995050505050505050505095945050505050565b602060405190810160405280600081525090565b602060405190810160405280600081525090565b604051610f358061160583390190565b604051610f358061253a8339019056006060604052341561000f57600080fd5b604051602080610f358339810160405280805190602001909190505080600160006101000a81548173ffffffffffffffffffffffffffffffffffffffff021916908373ffffffffffffffffffffffffffffffffffffffff160217905550619c4060008190555050610eb0806100856000396000f300606060405260043610610078576000357c0100000000000000000000000000000000000000000000000000000000900463ffffffff16806306fdde03146100ed5780638620410b1461011e5780639201de5514610147578063a02ec0e8146101e7578063a6f2ae3a1461025c578063fc0c546a1461027a575b7fcf34ef537ac33ee1ac626ca1587a0a7e8e51561e5514f8cb36afa1c5102b3bab60405180806020018281038252600b8152602001807f64656661756c74206c6f6700000000000000000000000000000000000000000081525060200191505060405180910390a16100ea33346102cf565b50005b34156100f857600080fd5b61010061043b565b60405180826000191660001916815260200191505060405180910390f35b341561012957600080fd5b610131610463565b6040518082815260200191505060405180910390f35b341561015257600080fd5b61016c600480803560001916906020019091905050610469565b6040518080602001828103825283818151815260200191508051906020019080838360005b838110156101ac578082015181840152602081019050610191565b50505050905090810190601f1680156101d95780820380516001836020036101000a031916815260200191505b509250505060405180910390f35b34156101f257600080fd5b610242600480803590602001908201803590602001908080601f01602080910402602001604051908101604052809392919081815260200183838082843782019150505050505091905050610656565b604051808215151515815260200191505060405180910390f35b61026461076f565b6040518082815260200191505060405180910390f35b341561028557600080fd5b61028d6107ed565b604051808273ffffffffffffffffffffffffffffffffffffffff1673ffffffffffffffffffffffffffffffffffffffff16815260200191505060405180910390f35b6000807fcf34ef537ac33ee1ac626ca1587a0a7e8e51561e5514f8cb36afa1c5102b3bab6040518080602001828103825260048152602001807f5f6275790000000000000000000000000000000000000000000000000000000081525060200191505060405180910390a1610342610813565b8381151561034c57fe5b0490507fcf34ef537ac33ee1ac626ca1587a0a7e8e51561e5514f8cb36afa1c5102b3bab6103b76040805190810160405280600d81526020017f5f62757920746f6b656e733a20000000000000000000000000000000000000008152506103b284610885565b6109d7565b6040518080602001828103825283818151815260200191508051906020019080838360005b838110156103f75780820151818401526020810190506103dc565b50505050905090810190601f1680156104245780820380516001836020036101000a031916815260200191505b509250505060405180910390a18091505092915050565b60007f53746167653349434f0000000000000000000000000000000000000000000000905090565b60005481565b610471610e5c565b610479610e70565b6000806000610486610e70565b60206040518059106104955750595b9080825280601f01601f1916602001820160405250945060009350600092505b6020831015610573578260080260020a876001900402600102915060007f010000000000000000000000000000000000000000000000000000000000000002827effffffffffffffffffffffffffffffffffffffffffffffffffffffffffffff19161415156105665781858581518110151561052d57fe5b9060200101907effffffffffffffffffffffffffffffffffffffffffffffffffffffffffffff1916908160001a90535083806001019450505b82806001019350506104b5565b836040518059106105815750595b9080825280601f01601f19166020018201604052509050600092505b838310156106495784838151811015156105b357fe5b9060200101517f010000000000000000000000000000000000000000000000000000000000000090047f010000000000000000000000000000000000000000000000000000000000000002818481518110151561060c57fe5b9060200101907effffffffffffffffffffffffffffffffffffffffffffffffffffffffffffff1916908160001a905350828060010193505061059d565b8095505050505050919050565b6000816040518082805190602001908083835b60208310151561068e5780518252602082019150602081019050602083039250610669565b6001836020036101000a0380198251168184511680821785525050505050509050019150506040518091039020600019163073ffffffffffffffffffffffffffffffffffffffff166306fdde036000604051602001526040518163ffffffff167c0100000000000000000000000000000000000000000000000000000000028152600401602060405180830381600087803b151561072b57600080fd5b6102c65a03f1151561073c57600080fd5b50505060405180519050604051808260001916600019168152602001915050604051809103902060001916149050919050565b6000807fcf34ef537ac33ee1ac626ca1587a0a7e8e51561e5514f8cb36afa1c5102b3bab6040518080602001828103825260038152602001807f627579000000000000000000000000000000000000000000000000000000000081525060200191505060405180910390a16107e433346102cf565b90508091505090565b600160009054906101000a900473ffffffffffffffffffffffffffffffffffffffff1681565b60007fcf34ef537ac33ee1ac626ca1587a0a7e8e51561e5514f8cb36afa1c5102b3bab6040518080602001828103825260158152602001807f5b426173652049434f5d205f6275795f7072696365000000000000000000000081525060200191505060405180910390a1600054905090565b61088d610e5c565b600080610898610e70565b6000808614156108df576040805190810160405280600181526020017f300000000000000000000000000000000000000000000000000000000000000081525094506109ce565b8593505b600084141515610909578280600101935050600a8481151561090157fe5b0493506108e3565b826040518059106109175750595b9080825280601f01601f191660200182016040525091506001830390505b6000861415156109ca57600a8681151561094b57fe5b066030017f01000000000000000000000000000000000000000000000000000000000000000282828060019003935081518110151561098657fe5b9060200101907effffffffffffffffffffffffffffffffffffffffffffffffffffffffffffff1916908160001a905350600a868115156109c257fe5b049550610935565b8194505b50505050919050565b6109df610e5c565b610a1c8383602060405190810160405280600081525060206040519081016040528060008152506020604051908101604052806000815250610a24565b905092915050565b610a2c610e5c565b610a34610e70565b610a3c610e70565b610a44610e70565b610a4c610e70565b610a54610e70565b610a5c610e5c565b610a64610e70565b6000808e98508d97508c96508b95508a94508451865188518a518c5101010101604051805910610a915750595b9080825280601f01601f1916602001820160405250935083925060009150600090505b8851811015610b67578881815181101515610acb57fe5b9060200101517f010000000000000000000000000000000000000000000000000000000000000090047f0100000000000000000000000000000000000000000000000000000000000000028383806001019450815181101515610b2a57fe5b9060200101907effffffffffffffffffffffffffffffffffffffffffffffffffffffffffffff1916908160001a9053508080600101915050610ab4565b600090505b8751811015610c1f578781815181101515610b8357fe5b9060200101517f010000000000000000000000000000000000000000000000000000000000000090047f0100000000000000000000000000000000000000000000000000000000000000028383806001019450815181101515610be257fe5b9060200101907effffffffffffffffffffffffffffffffffffffffffffffffffffffffffffff1916908160001a9053508080600101915050610b6c565b600090505b8651811015610cd7578681815181101515610c3b57fe5b9060200101517f010000000000000000000000000000000000000000000000000000000000000090047f0100000000000000000000000000000000000000000000000000000000000000028383806001019450815181101515610c9a57fe5b9060200101907effffffffffffffffffffffffffffffffffffffffffffffffffffffffffffff1916908160001a9053508080600101915050610c24565b600090505b8551811015610d8f578581815181101515610cf357fe5b9060200101517f010000000000000000000000000000000000000000000000000000000000000090047f0100000000000000000000000000000000000000000000000000000000000000028383806001019450815181101515610d5257fe5b9060200101907effffffffffffffffffffffffffffffffffffffffffffffffffffffffffffff1916908160001a9053508080600101915050610cdc565b600090505b8451811015610e47578481815181101515610dab57fe5b9060200101517f010000000000000000000000000000000000000000000000000000000000000090047f0100000000000000000000000000000000000000000000000000000000000000028383806001019450815181101515610e0a57fe5b9060200101907effffffffffffffffffffffffffffffffffffffffffffffffffffffffffffff1916908160001a9053508080600101915050610d94565b82995050505050505050505095945050505050565b602060405190810160405280600081525090565b6020604051908101604052806000815250905600a165627a7a72305820934c620900a3f4552533fab0f77a87074736086fa37d730d06f347c22303aad600296060604052341561000f57600080fd5b604051602080610f358339810160405280805190602001909190505080600160006101000a81548173ffffffffffffffffffffffffffffffffffffffff021916908373ffffffffffffffffffffffffffffffffffffffff160217905550614e2060008190555050610eb0806100856000396000f300606060405260043610610078576000357c0100000000000000000000000000000000000000000000000000000000900463ffffffff16806306fdde03146100ed5780638620410b1461011e5780639201de5514610147578063a02ec0e8146101e7578063a6f2ae3a1461025c578063fc0c546a1461027a575b7fcf34ef537ac33ee1ac626ca1587a0a7e8e51561e5514f8cb36afa1c5102b3bab60405180806020018281038252600b8152602001807f64656661756c74206c6f6700000000000000000000000000000000000000000081525060200191505060405180910390a16100ea33346102cf565b50005b34156100f857600080fd5b61010061043b565b60405180826000191660001916815260200191505060405180910390f35b341561012957600080fd5b610131610463565b6040518082815260200191505060405180910390f35b341561015257600080fd5b61016c600480803560001916906020019091905050610469565b6040518080602001828103825283818151815260200191508051906020019080838360005b838110156101ac578082015181840152602081019050610191565b50505050905090810190601f1680156101d95780820380516001836020036101000a031916815260200191505b509250505060405180910390f35b34156101f257600080fd5b610242600480803590602001908201803590602001908080601f01602080910402602001604051908101604052809392919081815260200183838082843782019150505050505091905050610656565b604051808215151515815260200191505060405180910390f35b61026461076f565b6040518082815260200191505060405180910390f35b341561028557600080fd5b61028d6107ed565b604051808273ffffffffffffffffffffffffffffffffffffffff1673ffffffffffffffffffffffffffffffffffffffff16815260200191505060405180910390f35b6000807fcf34ef537ac33ee1ac626ca1587a0a7e8e51561e5514f8cb36afa1c5102b3bab6040518080602001828103825260048152602001807f5f6275790000000000000000000000000000000000000000000000000000000081525060200191505060405180910390a1610342610813565b8381151561034c57fe5b0490507fcf34ef537ac33ee1ac626ca1587a0a7e8e51561e5514f8cb36afa1c5102b3bab6103b76040805190810160405280600d81526020017f5f62757920746f6b656e733a20000000000000000000000000000000000000008152506103b284610885565b6109d7565b6040518080602001828103825283818151815260200191508051906020019080838360005b838110156103f75780820151818401526020810190506103dc565b50505050905090810190601f1680156104245780820380516001836020036101000a031916815260200191505b509250505060405180910390a18091505092915050565b60007f53746167653249434f0000000000000000000000000000000000000000000000905090565b60005481565b610471610e5c565b610479610e70565b6000806000610486610e70565b60206040518059106104955750595b9080825280601f01601f1916602001820160405250945060009350600092505b6020831015610573578260080260020a876001900402600102915060007f010000000000000000000000000000000000000000000000000000000000000002827effffffffffffffffffffffffffffffffffffffffffffffffffffffffffffff19161415156105665781858581518110151561052d57fe5b9060200101907effffffffffffffffffffffffffffffffffffffffffffffffffffffffffffff1916908160001a90535083806001019450505b82806001019350506104b5565b836040518059106105815750595b9080825280601f01601f19166020018201604052509050600092505b838310156106495784838151811015156105b357fe5b9060200101517f010000000000000000000000000000000000000000000000000000000000000090047f010000000000000000000000000000000000000000000000000000000000000002818481518110151561060c57fe5b9060200101907effffffffffffffffffffffffffffffffffffffffffffffffffffffffffffff1916908160001a905350828060010193505061059d565b8095505050505050919050565b6000816040518082805190602001908083835b60208310151561068e5780518252602082019150602081019050602083039250610669565b6001836020036101000a0380198251168184511680821785525050505050509050019150506040518091039020600019163073ffffffffffffffffffffffffffffffffffffffff166306fdde036000604051602001526040518163ffffffff167c0100000000000000000000000000000000000000000000000000000000028152600401602060405180830381600087803b151561072b57600080fd5b6102c65a03f1151561073c57600080fd5b50505060405180519050604051808260001916600019168152602001915050604051809103902060001916149050919050565b6000807fcf34ef537ac33ee1ac626ca1587a0a7e8e51561e5514f8cb36afa1c5102b3bab6040518080602001828103825260038152602001807f627579000000000000000000000000000000000000000000000000000000000081525060200191505060405180910390a16107e433346102cf565b90508091505090565b600160009054906101000a900473ffffffffffffffffffffffffffffffffffffffff1681565b60007fcf34ef537ac33ee1ac626ca1587a0a7e8e51561e5514f8cb36afa1c5102b3bab6040518080602001828103825260158152602001807f5b426173652049434f5d205f6275795f7072696365000000000000000000000081525060200191505060405180910390a1600054905090565b61088d610e5c565b600080610898610e70565b6000808614156108df576040805190810160405280600181526020017f300000000000000000000000000000000000000000000000000000000000000081525094506109ce565b8593505b600084141515610909578280600101935050600a8481151561090157fe5b0493506108e3565b826040518059106109175750595b9080825280601f01601f191660200182016040525091506001830390505b6000861415156109ca57600a8681151561094b57fe5b066030017f01000000000000000000000000000000000000000000000000000000000000000282828060019003935081518110151561098657fe5b9060200101907effffffffffffffffffffffffffffffffffffffffffffffffffffffffffffff1916908160001a905350600a868115156109c257fe5b049550610935565b8194505b50505050919050565b6109df610e5c565b610a1c8383602060405190810160405280600081525060206040519081016040528060008152506020604051908101604052806000815250610a24565b905092915050565b610a2c610e5c565b610a34610e70565b610a3c610e70565b610a44610e70565b610a4c610e70565b610a54610e70565b610a5c610e5c565b610a64610e70565b6000808e98508d97508c96508b95508a94508451865188518a518c5101010101604051805910610a915750595b9080825280601f01601f1916602001820160405250935083925060009150600090505b8851811015610b67578881815181101515610acb57fe5b9060200101517f010000000000000000000000000000000000000000000000000000000000000090047f0100000000000000000000000000000000000000000000000000000000000000028383806001019450815181101515610b2a57fe5b9060200101907effffffffffffffffffffffffffffffffffffffffffffffffffffffffffffff1916908160001a9053508080600101915050610ab4565b600090505b8751811015610c1f578781815181101515610b8357fe5b9060200101517f010000000000000000000000000000000000000000000000000000000000000090047f0100000000000000000000000000000000000000000000000000000000000000028383806001019450815181101515610be257fe5b9060200101907effffffffffffffffffffffffffffffffffffffffffffffffffffffffffffff1916908160001a9053508080600101915050610b6c565b600090505b8651811015610cd7578681815181101515610c3b57fe5b9060200101517f010000000000000000000000000000000000000000000000000000000000000090047f0100000000000000000000000000000000000000000000000000000000000000028383806001019450815181101515610c9a57fe5b9060200101907effffffffffffffffffffffffffffffffffffffffffffffffffffffffffffff1916908160001a9053508080600101915050610c24565b600090505b8551811015610d8f578581815181101515610cf357fe5b9060200101517f010000000000000000000000000000000000000000000000000000000000000090047f0100000000000000000000000000000000000000000000000000000000000000028383806001019450815181101515610d5257fe5b9060200101907effffffffffffffffffffffffffffffffffffffffffffffffffffffffffffff1916908160001a9053508080600101915050610cdc565b600090505b8451811015610e47578481815181101515610dab57fe5b9060200101517f010000000000000000000000000000000000000000000000000000000000000090047f0100000000000000000000000000000000000000000000000000000000000000028383806001019450815181101515610e0a57fe5b9060200101907effffffffffffffffffffffffffffffffffffffffffffffffffffffffffffff1916908160001a9053508080600101915050610d94565b82995050505050505050505095945050505050565b602060405190810160405280600081525090565b6020604051908101604052806000815250905600a165627a7a7230582034b5fc31fb29f63ab3551a5db62115f2ca2a4ad9e8e17c968ce610a0d9c249a40029a165627a7a723058206d73e66a4855d0558554bbb9956a88cb4fff8c58e293de9cdbb24811c954e94d00296060604052341561000f57600080fd5b604051602080610f358339810160405280805190602001909190505080600160006101000a81548173ffffffffffffffffffffffffffffffffffffffff021916908373ffffffffffffffffffffffffffffffffffffffff16021790555061271060008190555050610eb0806100856000396000f300606060405260043610610078576000357c0100000000000000000000000000000000000000000000000000000000900463ffffffff16806306fdde03146100ed5780638620410b1461011e5780639201de5514610147578063a02ec0e8146101e7578063a6f2ae3a1461025c578063fc0c546a1461027a575b7fcf34ef537ac33ee1ac626ca1587a0a7e8e51561e5514f8cb36afa1c5102b3bab60405180806020018281038252600b8152602001807f64656661756c74206c6f6700000000000000000000000000000000000000000081525060200191505060405180910390a16100ea33346102cf565b50005b34156100f857600080fd5b61010061043b565b60405180826000191660001916815260200191505060405180910390f35b341561012957600080fd5b610131610463565b6040518082815260200191505060405180910390f35b341561015257600080fd5b61016c600480803560001916906020019091905050610469565b6040518080602001828103825283818151815260200191508051906020019080838360005b838110156101ac578082015181840152602081019050610191565b50505050905090810190601f1680156101d95780820380516001836020036101000a031916815260200191505b509250505060405180910390f35b34156101f257600080fd5b610242600480803590602001908201803590602001908080601f01602080910402602001604051908101604052809392919081815260200183838082843782019150505050505091905050610656565b604051808215151515815260200191505060405180910390f35b61026461076f565b6040518082815260200191505060405180910390f35b341561028557600080fd5b61028d6107ed565b604051808273ffffffffffffffffffffffffffffffffffffffff1673ffffffffffffffffffffffffffffffffffffffff16815260200191505060405180910390f35b6000807fcf34ef537ac33ee1ac626ca1587a0a7e8e51561e5514f8cb36afa1c5102b3bab6040518080602001828103825260048152602001807f5f6275790000000000000000000000000000000000000000000000000000000081525060200191505060405180910390a1610342610813565b8381151561034c57fe5b0490507fcf34ef537ac33ee1ac626ca1587a0a7e8e51561e5514f8cb36afa1c5102b3bab6103b76040805190810160405280600d81526020017f5f62757920746f6b656e733a20000000000000000000000000000000000000008152506103b284610885565b6109d7565b6040518080602001828103825283818151815260200191508051906020019080838360005b838110156103f75780820151818401526020810190506103dc565b50505050905090810190601f1680156104245780820380516001836020036101000a031916815260200191505b509250505060405180910390a18091505092915050565b60007f53746167653149434f0000000000000000000000000000000000000000000000905090565b60005481565b610471610e5c565b610479610e70565b6000806000610486610e70565b60206040518059106104955750595b9080825280601f01601f1916602001820160405250945060009350600092505b6020831015610573578260080260020a876001900402600102915060007f010000000000000000000000000000000000000000000000000000000000000002827effffffffffffffffffffffffffffffffffffffffffffffffffffffffffffff19161415156105665781858581518110151561052d57fe5b9060200101907effffffffffffffffffffffffffffffffffffffffffffffffffffffffffffff1916908160001a90535083806001019450505b82806001019350506104b5565b836040518059106105815750595b9080825280601f01601f19166020018201604052509050600092505b838310156106495784838151811015156105b357fe5b9060200101517f010000000000000000000000000000000000000000000000000000000000000090047f010000000000000000000000000000000000000000000000000000000000000002818481518110151561060c57fe5b9060200101907effffffffffffffffffffffffffffffffffffffffffffffffffffffffffffff1916908160001a905350828060010193505061059d565b8095505050505050919050565b6000816040518082805190602001908083835b60208310151561068e5780518252602082019150602081019050602083039250610669565b6001836020036101000a0380198251168184511680821785525050505050509050019150506040518091039020600019163073ffffffffffffffffffffffffffffffffffffffff166306fdde036000604051602001526040518163ffffffff167c0100000000000000000000000000000000000000000000000000000000028152600401602060405180830381600087803b151561072b57600080fd5b6102c65a03f1151561073c57600080fd5b50505060405180519050604051808260001916600019168152602001915050604051809103902060001916149050919050565b6000807fcf34ef537ac33ee1ac626ca1587a0a7e8e51561e5514f8cb36afa1c5102b3bab6040518080602001828103825260038152602001807f627579000000000000000000000000000000000000000000000000000000000081525060200191505060405180910390a16107e433346102cf565b90508091505090565b600160009054906101000a900473ffffffffffffffffffffffffffffffffffffffff1681565b60007fcf34ef537ac33ee1ac626ca1587a0a7e8e51561e5514f8cb36afa1c5102b3bab6040518080602001828103825260158152602001807f5b426173652049434f5d205f6275795f7072696365000000000000000000000081525060200191505060405180910390a1600054905090565b61088d610e5c565b600080610898610e70565b6000808614156108df576040805190810160405280600181526020017f300000000000000000000000000000000000000000000000000000000000000081525094506109ce565b8593505b600084141515610909578280600101935050600a8481151561090157fe5b0493506108e3565b826040518059106109175750595b9080825280601f01601f191660200182016040525091506001830390505b6000861415156109ca57600a8681151561094b57fe5b066030017f01000000000000000000000000000000000000000000000000000000000000000282828060019003935081518110151561098657fe5b9060200101907effffffffffffffffffffffffffffffffffffffffffffffffffffffffffffff1916908160001a905350600a868115156109c257fe5b049550610935565b8194505b50505050919050565b6109df610e5c565b610a1c8383602060405190810160405280600081525060206040519081016040528060008152506020604051908101604052806000815250610a24565b905092915050565b610a2c610e5c565b610a34610e70565b610a3c610e70565b610a44610e70565b610a4c610e70565b610a54610e70565b610a5c610e5c565b610a64610e70565b6000808e98508d97508c96508b95508a94508451865188518a518c5101010101604051805910610a915750595b9080825280601f01601f1916602001820160405250935083925060009150600090505b8851811015610b67578881815181101515610acb57fe5b9060200101517f010000000000000000000000000000000000000000000000000000000000000090047f0100000000000000000000000000000000000000000000000000000000000000028383806001019450815181101515610b2a57fe5b9060200101907effffffffffffffffffffffffffffffffffffffffffffffffffffffffffffff1916908160001a9053508080600101915050610ab4565b600090505b8751811015610c1f578781815181101515610b8357fe5b9060200101517f010000000000000000000000000000000000000000000000000000000000000090047f0100000000000000000000000000000000000000000000000000000000000000028383806001019450815181101515610be257fe5b9060200101907effffffffffffffffffffffffffffffffffffffffffffffffffffffffffffff1916908160001a9053508080600101915050610b6c565b600090505b8651811015610cd7578681815181101515610c3b57fe5b9060200101517f010000000000000000000000000000000000000000000000000000000000000090047f0100000000000000000000000000000000000000000000000000000000000000028383806001019450815181101515610c9a57fe5b9060200101907effffffffffffffffffffffffffffffffffffffffffffffffffffffffffffff1916908160001a9053508080600101915050610c24565b600090505b8551811015610d8f578581815181101515610cf357fe5b9060200101517f010000000000000000000000000000000000000000000000000000000000000090047f0100000000000000000000000000000000000000000000000000000000000000028383806001019450815181101515610d5257fe5b9060200101907effffffffffffffffffffffffffffffffffffffffffffffffffffffffffffff1916908160001a9053508080600101915050610cdc565b600090505b8451811015610e47578481815181101515610dab57fe5b9060200101517f010000000000000000000000000000000000000000000000000000000000000090047f0100000000000000000000000000000000000000000000000000000000000000028383806001019450815181101515610e0a57fe5b9060200101907effffffffffffffffffffffffffffffffffffffffffffffffffffffffffffff1916908160001a9053508080600101915050610d94565b82995050505050505050505095945050505050565b602060405190810160405280600081525090565b6020604051908101604052806000815250905600a165627a7a72305820ba40ad7673850f6639b35ef94dcd74fe112b3c80a330d4fe715550a18e184f8e0029",
  "source": "pragma solidity ^0.4.0;\n\nimport \"./BaseICO.sol\";\nimport \"./Stage1ICO.sol\";\nimport \"./Stage2ICO.sol\";\nimport \"./Stage3ICO.sol\";\n\ncontract MainICO is BaseICO {\n    BaseICO public _contract;\n    uint public startTime;\n    address public owner;\n\n    function MainICO(MyERC20Token8 _token){\n        token = _token;\n        startTime = now;\n        _contract = new Stage1ICO(token);\n        owner = msg.sender;\n    }\n\n    // remove contract\n    function remove() public {\n        if (msg.sender == owner){\n            selfdestruct(owner);\n        }\n    }\n\n    function _buy_price() internal returns(uint256) {\n        Log(\"[Main ICO] _buy_price\");\n        if (now > startTime + 4 minutes){\n            //\t\n            if (!_contract.isName(\"Stage3ICO\")) {\n                _contract = new Stage3ICO(token);\n            }\n            return _contract.buyPrice();\n        }\n        if (now > startTime + 2 minutes)\t{\n            //\t\t\n            if  (!_contract.isName(\"Stage2ICO\")) {\n                _contract = new Stage2ICO(token);\n            }\n            return _contract.buyPrice();\n        }\n        //  \n        return _contract.buyPrice();\n    }\n\n}\n",
  "sourcePath": "/Users/rustamakhmetov/projects/ethereumworks/safe_ico/contracts/MainICO.sol",
  "compiler": {
    "name": "solc",
    "version": "0.4.19+commit.c4cbbb05.Emscripten.clang"
  },
  "schemaVersion": "2.0.0",
  "updatedAt": "2018-04-02T12:26:42.016Z"
}