{
  "contractName": "MyERC20Token8",
  "abi": [
    {
      "constant": true,
      "inputs": [],
      "name": "name",
      "outputs": [
        {
          "name": "",
          "type": "string"
        }
      ],
      "payable": false,
      "stateMutability": "view",
      "type": "function"
    },
    {
      "constant": true,
      "inputs": [],
      "name": "totalSupply",
      "outputs": [
        {
          "name": "",
          "type": "uint256"
        }
      ],
      "payable": false,
      "stateMutability": "view",
      "type": "function"
    },
    {
      "constant": true,
      "inputs": [],
      "name": "decimals",
      "outputs": [
        {
          "name": "",
          "type": "uint8"
        }
      ],
      "payable": false,
      "stateMutability": "view",
      "type": "function"
    },
    {
      "constant": true,
      "inputs": [
        {
          "name": "",
          "type": "address"
        }
      ],
      "name": "balanceOf",
      "outputs": [
        {
          "name": "",
          "type": "uint256"
        }
      ],
      "payable": false,
      "stateMutability": "view",
      "type": "function"
    },
    {
      "constant": true,
      "inputs": [],
      "name": "startTime",
      "outputs": [
        {
          "name": "",
          "type": "uint256"
        }
      ],
      "payable": false,
      "stateMutability": "view",
      "type": "function"
    },
    {
      "constant": true,
      "inputs": [],
      "name": "symbol",
      "outputs": [
        {
          "name": "",
          "type": "string"
        }
      ],
      "payable": false,
      "stateMutability": "view",
      "type": "function"
    },
    {
      "constant": true,
      "inputs": [
        {
          "name": "",
          "type": "address"
        },
        {
          "name": "",
          "type": "address"
        }
      ],
      "name": "allowance",
      "outputs": [
        {
          "name": "",
          "type": "uint256"
        }
      ],
      "payable": false,
      "stateMutability": "view",
      "type": "function"
    },
    {
      "inputs": [],
      "payable": false,
      "stateMutability": "nonpayable",
      "type": "constructor"
    },
    {
      "payable": true,
      "stateMutability": "payable",
      "type": "fallback"
    },
    {
      "anonymous": false,
      "inputs": [
        {
          "indexed": false,
          "name": "from",
          "type": "address"
        },
        {
          "indexed": false,
          "name": "to",
          "type": "address"
        },
        {
          "indexed": false,
          "name": "value",
          "type": "uint256"
        }
      ],
      "name": "Transfer",
      "type": "event"
    },
    {
      "anonymous": false,
      "inputs": [
        {
          "indexed": false,
          "name": "from",
          "type": "address"
        },
        {
          "indexed": false,
          "name": "to",
          "type": "address"
        },
        {
          "indexed": false,
          "name": "value",
          "type": "uint256"
        }
      ],
      "name": "Approval",
      "type": "event"
    },
    {
      "constant": false,
      "inputs": [
        {
          "name": "_to",
          "type": "address"
        },
        {
          "name": "_value",
          "type": "uint256"
        }
      ],
      "name": "transfer",
      "outputs": [],
      "payable": false,
      "stateMutability": "nonpayable",
      "type": "function"
    },
    {
      "constant": false,
      "inputs": [
        {
          "name": "_from",
          "type": "address"
        },
        {
          "name": "_to",
          "type": "address"
        },
        {
          "name": "_value",
          "type": "uint256"
        }
      ],
      "name": "transferFrom",
      "outputs": [],
      "payable": false,
      "stateMutability": "nonpayable",
      "type": "function"
    },
    {
      "constant": false,
      "inputs": [
        {
          "name": "_to",
          "type": "address"
        },
        {
          "name": "_value",
          "type": "uint256"
        }
      ],
      "name": "approve",
      "outputs": [],
      "payable": false,
      "stateMutability": "nonpayable",
      "type": "function"
    },
    {
      "constant": true,
      "inputs": [],
      "name": "buyPrice",
      "outputs": [
        {
          "name": "",
          "type": "uint256"
        }
      ],
      "payable": false,
      "stateMutability": "view",
      "type": "function"
    },
    {
      "constant": false,
      "inputs": [],
      "name": "buy",
      "outputs": [],
      "payable": true,
      "stateMutability": "payable",
      "type": "function"
    }
  ],
  "bytecode": "0x6060604052341561000f57600080fd5b6012600260006101000a81548160ff021916908360ff160217905550600260009054906101000a900460ff1660ff16600a0a6298968002600481905550600454600660003073ffffffffffffffffffffffffffffffffffffffff1673ffffffffffffffffffffffffffffffffffffffff168152602001908152602001600020819055506127106003819055506040805190810160405280600d81526020017f4d794552433230546f6b656e3800000000000000000000000000000000000000815250600090805190602001906100e692919061013f565b506040805190810160405280600481526020017f4d455438000000000000000000000000000000000000000000000000000000008152506001908051906020019061013292919061013f565b50426005819055506101e4565b828054600181600116156101000203166002900490600052602060002090601f016020900481019282601f1061018057805160ff19168380011785556101ae565b828001600101855582156101ae579182015b828111156101ad578251825591602001919060010190610192565b5b5090506101bb91906101bf565b5090565b6101e191905b808211156101dd5760008160009055506001016101c5565b5090565b90565b610b12806101f36000396000f3006060604052600436106100ba576000357c0100000000000000000000000000000000000000000000000000000000900463ffffffff16806306fdde03146100c6578063095ea7b31461015457806318160ddd1461019657806323b872dd146101bf578063313ce5671461022057806370a082311461024f57806378e979251461029c5780638620410b146102c557806395d89b41146102ee578063a6f2ae3a1461037c578063a9059cbb14610386578063dd62ed3e146103c8575b6100c43334610434565b005b34156100d157600080fd5b6100d961045b565b6040518080602001828103825283818151815260200191508051906020019080838360005b838110156101195780820151818401526020810190506100fe565b50505050905090810190601f1680156101465780820380516001836020036101000a031916815260200191505b509250505060405180910390f35b341561015f57600080fd5b610194600480803573ffffffffffffffffffffffffffffffffffffffff169060200190919080359060200190919050506104f9565b005b34156101a157600080fd5b6101a961061d565b6040518082815260200191505060405180910390f35b34156101ca57600080fd5b61021e600480803573ffffffffffffffffffffffffffffffffffffffff1690602001909190803573ffffffffffffffffffffffffffffffffffffffff16906020019091908035906020019091905050610623565b005b341561022b57600080fd5b610233610748565b604051808260ff1660ff16815260200191505060405180910390f35b341561025a57600080fd5b610286600480803573ffffffffffffffffffffffffffffffffffffffff1690602001909190505061075b565b6040518082815260200191505060405180910390f35b34156102a757600080fd5b6102af610773565b6040518082815260200191505060405180910390f35b34156102d057600080fd5b6102d8610779565b6040518082815260200191505060405180910390f35b34156102f957600080fd5b610301610788565b6040518080602001828103825283818151815260200191508051906020019080838360005b83811015610341578082015181840152602081019050610326565b50505050905090810190601f16801561036e5780820380516001836020036101000a031916815260200191505b509250505060405180910390f35b610384610826565b005b341561039157600080fd5b6103c6600480803573ffffffffffffffffffffffffffffffffffffffff16906020019091908035906020019091905050610832565b005b34156103d357600080fd5b61041e600480803573ffffffffffffffffffffffffffffffffffffffff1690602001909190803573ffffffffffffffffffffffffffffffffffffffff16906020019091905050610841565b6040518082815260200191505060405180910390f35b600061043e610866565b8281151561044857fe5b0490506104563084836108a5565b505050565b60008054600181600116156101000203166002900480601f0160208091040260200160405190810160405280929190818152602001828054600181600116156101000203166002900480156104f15780601f106104c6576101008083540402835291602001916104f1565b820191906000526020600020905b8154815290600101906020018083116104d457829003601f168201915b505050505081565b80600760003373ffffffffffffffffffffffffffffffffffffffff1673ffffffffffffffffffffffffffffffffffffffff16815260200190815260200160002060008473ffffffffffffffffffffffffffffffffffffffff1673ffffffffffffffffffffffffffffffffffffffff168152602001908152602001600020819055507f8c5be1e5ebec7d5bd14f71427d1e84f3dd0314c0f7b2291e5b200ac8c7c3b925338383604051808473ffffffffffffffffffffffffffffffffffffffff1673ffffffffffffffffffffffffffffffffffffffff1681526020018373ffffffffffffffffffffffffffffffffffffffff1673ffffffffffffffffffffffffffffffffffffffff168152602001828152602001935050505060405180910390a15050565b60045481565b600760008473ffffffffffffffffffffffffffffffffffffffff1673ffffffffffffffffffffffffffffffffffffffff16815260200190815260200160002060008373ffffffffffffffffffffffffffffffffffffffff1673ffffffffffffffffffffffffffffffffffffffff1681526020019081526020016000205481111515156106ae57600080fd5b80600760008573ffffffffffffffffffffffffffffffffffffffff1673ffffffffffffffffffffffffffffffffffffffff16815260200190815260200160002060008473ffffffffffffffffffffffffffffffffffffffff1673ffffffffffffffffffffffffffffffffffffffff168152602001908152602001600020600082825403925050819055506107438383836108a5565b505050565b600260009054906101000a900460ff1681565b60066020528060005260406000206000915090505481565b60055481565b6000610783610866565b905090565b60018054600181600116156101000203166002900480601f01602080910402602001604051908101604052809291908181526020018280546001816001161561010002031660029004801561081e5780601f106107f35761010080835404028352916020019161081e565b820191906000526020600020905b81548152906001019060200180831161080157829003601f168201915b505050505081565b6108303334610434565b565b61083d3383836108a5565b5050565b6007602052816000526040600020602052806000526040600020600091509150505481565b600060f0600554014211156108825760646003540290506108a2565b60786005540142111561089c57600a6003540290506108a2565b60035490505b90565b60008273ffffffffffffffffffffffffffffffffffffffff16141515156108cb57600080fd5b80600660008573ffffffffffffffffffffffffffffffffffffffff1673ffffffffffffffffffffffffffffffffffffffff168152602001908152602001600020541015151561091957600080fd5b600660008373ffffffffffffffffffffffffffffffffffffffff1673ffffffffffffffffffffffffffffffffffffffff1681526020019081526020016000205481600660008573ffffffffffffffffffffffffffffffffffffffff1673ffffffffffffffffffffffffffffffffffffffff1681526020019081526020016000205401101515156109a857600080fd5b80600660008473ffffffffffffffffffffffffffffffffffffffff1673ffffffffffffffffffffffffffffffffffffffff1681526020019081526020016000206000828254019250508190555080600660008573ffffffffffffffffffffffffffffffffffffffff1673ffffffffffffffffffffffffffffffffffffffff168152602001908152602001600020600082825403925050819055507fddf252ad1be2c89b69c2b068fc378daa952ba7f163c4a11628f55a4df523b3ef838383604051808473ffffffffffffffffffffffffffffffffffffffff1673ffffffffffffffffffffffffffffffffffffffff1681526020018373ffffffffffffffffffffffffffffffffffffffff1673ffffffffffffffffffffffffffffffffffffffff168152602001828152602001935050505060405180910390a15050505600a165627a7a723058201ff71a5a0a57b51eff02a94d3a27e53f52e51cd03cdad65149ac200ab2a60a1d0029",
  "source": "// Указываем версию для компилятора\npragma solidity ^0.4.11;\n\n\n// Инициализация контракта\ncontract MyERC20Token8 {\n\n    // Объявляем переменную в которой будет название токена\n    string public name;\n    // Объявляем переменную в которой будет символ токена\n    string public symbol;\n    // Объявляем переменную в которой будет число нулей токена\n    uint8 public decimals;\n    uint256 _buyPrice;\n\n    // Объявляем переменную в которой будет храниться общее число токенов\n    uint256 public totalSupply;\n\n    uint public startTime;\n\n    // Объявляем маппинг для хранения балансов пользователей\n    mapping (address => uint256) public balanceOf;\n    // Объявляем маппинг для хранения одобренных транзакций\n    mapping (address => mapping (address => uint256)) public allowance;\n\n    // Объявляем эвент для логгирования события перевода токенов\n    event Transfer(address from, address to, uint256 value);\n    // Объявляем эвент для логгирования события одобрения перевода токенов\n    event Approval(address from, address to, uint256 value);\n\n    // Функция инициализации контракта\n    function MyERC20Token8(){\n        // Указываем число нулей\n        decimals = 18;\n        // Объявляем общее число токенов, которое будет создано при инициализации\n        totalSupply = 10000000 * (10 ** uint256(decimals));\n        // 10000000 * (10^decimals)\n\n        // \"Отправляем\" все токены на баланс того, кто инициализировал создание контракта токена\n        balanceOf[this] = totalSupply;\n\n        _buyPrice = 10000;\n\n        // Указываем название токена\n        name = \"MyERC20Token8\";\n        // Указываем символ токена\n        symbol = \"MET8\";\n\n        startTime = now;\n    }\n\n    // Внутренняя функция для перевода токенов\n    function _transfer(address _from, address _to, uint256 _value) internal {\n        require(_to != 0x0);\n        // Проверка на пустой адрес\n        require(balanceOf[_from] >= _value);\n        // Проверка того, что отправителю хватает токенов для перевода\n        require(balanceOf[_to] + _value >= balanceOf[_to]);\n        //\n\n        balanceOf[_to] += _value;\n        // Токены списываются у отправителя\n        balanceOf[_from] -= _value;\n        // Токены прибавляются получателю\n\n        Transfer(_from, _to, _value);\n        // Перевод токенов\n    }\n\n    // Функция для перевода токенов\n    function transfer(address _to, uint256 _value) public {\n        _transfer(msg.sender, _to, _value);\n        // Вызов внутренней функции перевода\n    }\n\n    // Функция для перевода \"одобренных\" токенов\n    function transferFrom(address _from, address _to, uint256 _value) public {\n        // Проверка, что токены были выделены аккаунтом _from для аккаунта _to\n        require(_value <= allowance[_from][_to]);\n        allowance[_from][_to] -= _value;\n        // Отправка токенов\n        _transfer(_from, _to, _value);\n    }\n\n    // Функция для \"одобрения\" перевода токенов\n    function approve(address _to, uint256 _value) public {\n        allowance[msg.sender][_to] = _value;\n        Approval(msg.sender, _to, _value);\n        // Вызов эвента для логгирования события одобрения перевода токенов\n    }\n\n    function _buy_price() internal returns(uint256) {\n        if (now > startTime + 4 minutes){\n            //третий\tвариант\n            return _buyPrice * 100;\n        }\n        if (now > startTime + 2 minutes)\t{\n            //\tвторой\tвариант\n            return _buyPrice * 10;\n        }\n        // первый вариант\n        return _buyPrice;\n    }\n\n\n    function buyPrice() public view returns (uint256) {\n        return _buy_price();\n    }\n\n    // Функция для отправки эфиров на контракт\n    function() payable {\n        // Выполняем внутреннюю функцию контракта\n        _buy(msg.sender, msg.value);\n    }\n\n    // Функция для отправки эфиров на контракт (вызываемая)\n    function buy() payable {\n        _buy(msg.sender, msg.value);\n    }\n\n    // Внутренняя функция покупки\n    function _buy(address _from, uint256 _value) internal {\n        // Получаем количество возможных для покупки токенов по курсу\n        uint256 amount = _value / _buy_price();\n        // Вызываем внутреннюю функцию перевода токенов\n        _transfer(this, _from, amount);\n    }\n}",
  "sourcePath": "/Users/rustamakhmetov/projects/ethereumworks/safe_ico/contracts/MyERC20Token8.sol",
  "compiler": {
    "name": "solc",
    "version": "0.4.19+commit.c4cbbb05.Emscripten.clang"
  },
  "schemaVersion": "2.0.0",
  "updatedAt": "2018-04-02T12:26:42.024Z"
}