{
  "contractName": "Stage2ICO",
  "abi": [
    {
      "constant": true,
      "inputs": [],
      "name": "buyPrice",
      "outputs": [
        {
          "name": "",
          "type": "uint256"
        }
      ],
      "payable": false,
      "stateMutability": "view",
      "type": "function"
    },
    {
      "constant": true,
      "inputs": [
        {
          "name": "x",
          "type": "bytes32"
        }
      ],
      "name": "bytes32ToString",
      "outputs": [
        {
          "name": "",
          "type": "string"
        }
      ],
      "payable": false,
      "stateMutability": "view",
      "type": "function"
    },
    {
      "constant": false,
      "inputs": [
        {
          "name": "value",
          "type": "string"
        }
      ],
      "name": "isName",
      "outputs": [
        {
          "name": "",
          "type": "bool"
        }
      ],
      "payable": false,
      "stateMutability": "nonpayable",
      "type": "function"
    },
    {
      "constant": false,
      "inputs": [],
      "name": "buy",
      "outputs": [
        {
          "name": "",
          "type": "uint256"
        }
      ],
      "payable": true,
      "stateMutability": "payable",
      "type": "function"
    },
    {
      "constant": true,
      "inputs": [],
      "name": "token",
      "outputs": [
        {
          "name": "",
          "type": "address"
        }
      ],
      "payable": false,
      "stateMutability": "view",
      "type": "function"
    },
    {
      "inputs": [
        {
          "name": "_token",
          "type": "address"
        }
      ],
      "payable": false,
      "stateMutability": "nonpayable",
      "type": "constructor"
    },
    {
      "payable": true,
      "stateMutability": "payable",
      "type": "fallback"
    },
    {
      "anonymous": false,
      "inputs": [
        {
          "indexed": false,
          "name": "_message",
          "type": "string"
        }
      ],
      "name": "Log",
      "type": "event"
    },
    {
      "constant": true,
      "inputs": [],
      "name": "name",
      "outputs": [
        {
          "name": "",
          "type": "bytes32"
        }
      ],
      "payable": false,
      "stateMutability": "view",
      "type": "function"
    }
  ],
  "bytecode": "0x6060604052341561000f57600080fd5b604051602080610f358339810160405280805190602001909190505080600160006101000a81548173ffffffffffffffffffffffffffffffffffffffff021916908373ffffffffffffffffffffffffffffffffffffffff160217905550614e2060008190555050610eb0806100856000396000f300606060405260043610610078576000357c0100000000000000000000000000000000000000000000000000000000900463ffffffff16806306fdde03146100ed5780638620410b1461011e5780639201de5514610147578063a02ec0e8146101e7578063a6f2ae3a1461025c578063fc0c546a1461027a575b7fcf34ef537ac33ee1ac626ca1587a0a7e8e51561e5514f8cb36afa1c5102b3bab60405180806020018281038252600b8152602001807f64656661756c74206c6f6700000000000000000000000000000000000000000081525060200191505060405180910390a16100ea33346102cf565b50005b34156100f857600080fd5b61010061043b565b60405180826000191660001916815260200191505060405180910390f35b341561012957600080fd5b610131610463565b6040518082815260200191505060405180910390f35b341561015257600080fd5b61016c600480803560001916906020019091905050610469565b6040518080602001828103825283818151815260200191508051906020019080838360005b838110156101ac578082015181840152602081019050610191565b50505050905090810190601f1680156101d95780820380516001836020036101000a031916815260200191505b509250505060405180910390f35b34156101f257600080fd5b610242600480803590602001908201803590602001908080601f01602080910402602001604051908101604052809392919081815260200183838082843782019150505050505091905050610656565b604051808215151515815260200191505060405180910390f35b61026461076f565b6040518082815260200191505060405180910390f35b341561028557600080fd5b61028d6107ed565b604051808273ffffffffffffffffffffffffffffffffffffffff1673ffffffffffffffffffffffffffffffffffffffff16815260200191505060405180910390f35b6000807fcf34ef537ac33ee1ac626ca1587a0a7e8e51561e5514f8cb36afa1c5102b3bab6040518080602001828103825260048152602001807f5f6275790000000000000000000000000000000000000000000000000000000081525060200191505060405180910390a1610342610813565b8381151561034c57fe5b0490507fcf34ef537ac33ee1ac626ca1587a0a7e8e51561e5514f8cb36afa1c5102b3bab6103b76040805190810160405280600d81526020017f5f62757920746f6b656e733a20000000000000000000000000000000000000008152506103b284610885565b6109d7565b6040518080602001828103825283818151815260200191508051906020019080838360005b838110156103f75780820151818401526020810190506103dc565b50505050905090810190601f1680156104245780820380516001836020036101000a031916815260200191505b509250505060405180910390a18091505092915050565b60007f53746167653249434f0000000000000000000000000000000000000000000000905090565b60005481565b610471610e5c565b610479610e70565b6000806000610486610e70565b60206040518059106104955750595b9080825280601f01601f1916602001820160405250945060009350600092505b6020831015610573578260080260020a876001900402600102915060007f010000000000000000000000000000000000000000000000000000000000000002827effffffffffffffffffffffffffffffffffffffffffffffffffffffffffffff19161415156105665781858581518110151561052d57fe5b9060200101907effffffffffffffffffffffffffffffffffffffffffffffffffffffffffffff1916908160001a90535083806001019450505b82806001019350506104b5565b836040518059106105815750595b9080825280601f01601f19166020018201604052509050600092505b838310156106495784838151811015156105b357fe5b9060200101517f010000000000000000000000000000000000000000000000000000000000000090047f010000000000000000000000000000000000000000000000000000000000000002818481518110151561060c57fe5b9060200101907effffffffffffffffffffffffffffffffffffffffffffffffffffffffffffff1916908160001a905350828060010193505061059d565b8095505050505050919050565b6000816040518082805190602001908083835b60208310151561068e5780518252602082019150602081019050602083039250610669565b6001836020036101000a0380198251168184511680821785525050505050509050019150506040518091039020600019163073ffffffffffffffffffffffffffffffffffffffff166306fdde036000604051602001526040518163ffffffff167c0100000000000000000000000000000000000000000000000000000000028152600401602060405180830381600087803b151561072b57600080fd5b6102c65a03f1151561073c57600080fd5b50505060405180519050604051808260001916600019168152602001915050604051809103902060001916149050919050565b6000807fcf34ef537ac33ee1ac626ca1587a0a7e8e51561e5514f8cb36afa1c5102b3bab6040518080602001828103825260038152602001807f627579000000000000000000000000000000000000000000000000000000000081525060200191505060405180910390a16107e433346102cf565b90508091505090565b600160009054906101000a900473ffffffffffffffffffffffffffffffffffffffff1681565b60007fcf34ef537ac33ee1ac626ca1587a0a7e8e51561e5514f8cb36afa1c5102b3bab6040518080602001828103825260158152602001807f5b426173652049434f5d205f6275795f7072696365000000000000000000000081525060200191505060405180910390a1600054905090565b61088d610e5c565b600080610898610e70565b6000808614156108df576040805190810160405280600181526020017f300000000000000000000000000000000000000000000000000000000000000081525094506109ce565b8593505b600084141515610909578280600101935050600a8481151561090157fe5b0493506108e3565b826040518059106109175750595b9080825280601f01601f191660200182016040525091506001830390505b6000861415156109ca57600a8681151561094b57fe5b066030017f01000000000000000000000000000000000000000000000000000000000000000282828060019003935081518110151561098657fe5b9060200101907effffffffffffffffffffffffffffffffffffffffffffffffffffffffffffff1916908160001a905350600a868115156109c257fe5b049550610935565b8194505b50505050919050565b6109df610e5c565b610a1c8383602060405190810160405280600081525060206040519081016040528060008152506020604051908101604052806000815250610a24565b905092915050565b610a2c610e5c565b610a34610e70565b610a3c610e70565b610a44610e70565b610a4c610e70565b610a54610e70565b610a5c610e5c565b610a64610e70565b6000808e98508d97508c96508b95508a94508451865188518a518c5101010101604051805910610a915750595b9080825280601f01601f1916602001820160405250935083925060009150600090505b8851811015610b67578881815181101515610acb57fe5b9060200101517f010000000000000000000000000000000000000000000000000000000000000090047f0100000000000000000000000000000000000000000000000000000000000000028383806001019450815181101515610b2a57fe5b9060200101907effffffffffffffffffffffffffffffffffffffffffffffffffffffffffffff1916908160001a9053508080600101915050610ab4565b600090505b8751811015610c1f578781815181101515610b8357fe5b9060200101517f010000000000000000000000000000000000000000000000000000000000000090047f0100000000000000000000000000000000000000000000000000000000000000028383806001019450815181101515610be257fe5b9060200101907effffffffffffffffffffffffffffffffffffffffffffffffffffffffffffff1916908160001a9053508080600101915050610b6c565b600090505b8651811015610cd7578681815181101515610c3b57fe5b9060200101517f010000000000000000000000000000000000000000000000000000000000000090047f0100000000000000000000000000000000000000000000000000000000000000028383806001019450815181101515610c9a57fe5b9060200101907effffffffffffffffffffffffffffffffffffffffffffffffffffffffffffff1916908160001a9053508080600101915050610c24565b600090505b8551811015610d8f578581815181101515610cf357fe5b9060200101517f010000000000000000000000000000000000000000000000000000000000000090047f0100000000000000000000000000000000000000000000000000000000000000028383806001019450815181101515610d5257fe5b9060200101907effffffffffffffffffffffffffffffffffffffffffffffffffffffffffffff1916908160001a9053508080600101915050610cdc565b600090505b8451811015610e47578481815181101515610dab57fe5b9060200101517f010000000000000000000000000000000000000000000000000000000000000090047f0100000000000000000000000000000000000000000000000000000000000000028383806001019450815181101515610e0a57fe5b9060200101907effffffffffffffffffffffffffffffffffffffffffffffffffffffffffffff1916908160001a9053508080600101915050610d94565b82995050505050505050505095945050505050565b602060405190810160405280600081525090565b6020604051908101604052806000815250905600a165627a7a7230582034b5fc31fb29f63ab3551a5db62115f2ca2a4ad9e8e17c968ce610a0d9c249a40029",
  "source": "pragma solidity ^0.4.0;\n\nimport \"./BaseICO.sol\";\n\ncontract Stage2ICO is BaseICO {\n    function Stage2ICO(MyERC20Token8 _token){\n        token = _token;\n        buyPrice = 20000;\n    }\n\n    function name() public view returns(bytes32) {\n        return \"Stage2ICO\";\n    }\n}\n",
  "sourcePath": "/Users/rustamakhmetov/projects/ethereumworks/safe_ico/contracts/Stage2ICO.sol",
  "compiler": {
    "name": "solc",
    "version": "0.4.19+commit.c4cbbb05.Emscripten.clang"
  },
  "schemaVersion": "2.0.0",
  "updatedAt": "2018-04-02T12:11:03.662Z"
}